{
  "_format": "hh3-artifact-1",
  "contractName": "ArbitrationPool",
  "sourceName": "contracts/ArbitrationPool.sol",
  "abi": [
    {
      "inputs": [
        {
          "internalType": "address",
          "name": "_reputation",
          "type": "address"
        },
        {
          "internalType": "address",
          "name": "_defaultFeeToken",
          "type": "address"
        },
        {
          "internalType": "uint256",
          "name": "_defaultFeePerVote",
          "type": "uint256"
        }
      ],
      "stateMutability": "nonpayable",
      "type": "constructor"
    },
    {
      "inputs": [],
      "name": "AlreadyArbitrator",
      "type": "error"
    },
    {
      "inputs": [],
      "name": "AlreadyVoted",
      "type": "error"
    },
    {
      "inputs": [],
      "name": "DisputeNotPending",
      "type": "error"
    },
    {
      "inputs": [],
      "name": "InsufficientTier",
      "type": "error"
    },
    {
      "inputs": [],
      "name": "NotArbitrator",
      "type": "error"
    },
    {
      "inputs": [],
      "name": "NotEscrow",
      "type": "error"
    },
    {
      "inputs": [],
      "name": "NotOwner",
      "type": "error"
    },
    {
      "inputs": [],
      "name": "NothingToClaim",
      "type": "error"
    },
    {
      "inputs": [],
      "name": "TransferFailed",
      "type": "error"
    },
    {
      "inputs": [],
      "name": "ZeroAddress",
      "type": "error"
    },
    {
      "anonymous": false,
      "inputs": [
        {
          "indexed": true,
          "internalType": "address",
          "name": "arbitrator",
          "type": "address"
        }
      ],
      "name": "ArbitratorRegistered",
      "type": "event"
    },
    {
      "anonymous": false,
      "inputs": [
        {
          "indexed": true,
          "internalType": "address",
          "name": "arbitrator",
          "type": "address"
        }
      ],
      "name": "ArbitratorRemoved",
      "type": "event"
    },
    {
      "anonymous": false,
      "inputs": [
        {
          "indexed": true,
          "internalType": "uint256",
          "name": "disputeId",
          "type": "uint256"
        },
        {
          "indexed": true,
          "internalType": "uint256",
          "name": "taskId",
          "type": "uint256"
        },
        {
          "indexed": false,
          "internalType": "address",
          "name": "worker",
          "type": "address"
        },
        {
          "indexed": false,
          "internalType": "address",
          "name": "poster",
          "type": "address"
        }
      ],
      "name": "DisputeOpened",
      "type": "event"
    },
    {
      "anonymous": false,
      "inputs": [
        {
          "indexed": true,
          "internalType": "uint256",
          "name": "disputeId",
          "type": "uint256"
        },
        {
          "indexed": false,
          "internalType": "enum ArbitrationPool.DisputeOutcome",
          "name": "outcome",
          "type": "uint8"
        }
      ],
      "name": "DisputeResolved",
      "type": "event"
    },
    {
      "anonymous": false,
      "inputs": [
        {
          "indexed": true,
          "internalType": "address",
          "name": "arbitrator",
          "type": "address"
        },
        {
          "indexed": false,
          "internalType": "uint256",
          "name": "amount",
          "type": "uint256"
        }
      ],
      "name": "FeeClaimed",
      "type": "event"
    },
    {
      "anonymous": false,
      "inputs": [
        {
          "indexed": true,
          "internalType": "uint256",
          "name": "disputeId",
          "type": "uint256"
        },
        {
          "indexed": true,
          "internalType": "address",
          "name": "arbitrator",
          "type": "address"
        },
        {
          "indexed": false,
          "internalType": "bool",
          "name": "inFavourOfWorker",
          "type": "bool"
        }
      ],
      "name": "VoteCast",
      "type": "event"
    },
    {
      "inputs": [],
      "name": "QUORUM",
      "outputs": [
        {
          "internalType": "uint8",
          "name": "",
          "type": "uint8"
        }
      ],
      "stateMutability": "view",
      "type": "function"
    },
    {
      "inputs": [
        {
          "internalType": "address",
          "name": "arb",
          "type": "address"
        }
      ],
      "name": "addArbitrator",
      "outputs": [],
      "stateMutability": "nonpayable",
      "type": "function"
    },
    {
      "inputs": [
        {
          "internalType": "uint256",
          "name": "disputeId",
          "type": "uint256"
        }
      ],
      "name": "claimFee",
      "outputs": [],
      "stateMutability": "nonpayable",
      "type": "function"
    },
    {
      "inputs": [],
      "name": "defaultFeePerVote",
      "outputs": [
        {
          "internalType": "uint256",
          "name": "",
          "type": "uint256"
        }
      ],
      "stateMutability": "view",
      "type": "function"
    },
    {
      "inputs": [],
      "name": "defaultFeeToken",
      "outputs": [
        {
          "internalType": "address",
          "name": "",
          "type": "address"
        }
      ],
      "stateMutability": "view",
      "type": "function"
    },
    {
      "inputs": [],
      "name": "disputeCount",
      "outputs": [
        {
          "internalType": "uint256",
          "name": "",
          "type": "uint256"
        }
      ],
      "stateMutability": "view",
      "type": "function"
    },
    {
      "inputs": [
        {
          "internalType": "uint256",
          "name": "",
          "type": "uint256"
        }
      ],
      "name": "disputes",
      "outputs": [
        {
          "internalType": "uint256",
          "name": "taskId",
          "type": "uint256"
        },
        {
          "internalType": "address",
          "name": "worker",
          "type": "address"
        },
        {
          "internalType": "address",
          "name": "poster",
          "type": "address"
        },
        {
          "internalType": "uint32",
          "name": "votesForWorker",
          "type": "uint32"
        },
        {
          "internalType": "uint32",
          "name": "votesForPoster",
          "type": "uint32"
        },
        {
          "internalType": "enum ArbitrationPool.DisputeOutcome",
          "name": "outcome",
          "type": "uint8"
        },
        {
          "internalType": "uint256",
          "name": "openedAt",
          "type": "uint256"
        },
        {
          "internalType": "uint256",
          "name": "resolvedAt",
          "type": "uint256"
        },
        {
          "internalType": "address",
          "name": "paymentToken",
          "type": "address"
        },
        {
          "internalType": "uint256",
          "name": "feePerVote",
          "type": "uint256"
        }
      ],
      "stateMutability": "view",
      "type": "function"
    },
    {
      "inputs": [],
      "name": "escrow",
      "outputs": [
        {
          "internalType": "address",
          "name": "",
          "type": "address"
        }
      ],
      "stateMutability": "view",
      "type": "function"
    },
    {
      "inputs": [],
      "name": "getArbitratorCount",
      "outputs": [
        {
          "internalType": "uint256",
          "name": "",
          "type": "uint256"
        }
      ],
      "stateMutability": "view",
      "type": "function"
    },
    {
      "inputs": [
        {
          "internalType": "uint256",
          "name": "disputeId",
          "type": "uint256"
        }
      ],
      "name": "getDispute",
      "outputs": [
        {
          "components": [
            {
              "internalType": "uint256",
              "name": "taskId",
              "type": "uint256"
            },
            {
              "internalType": "address",
              "name": "worker",
              "type": "address"
            },
            {
              "internalType": "address",
              "name": "poster",
              "type": "address"
            },
            {
              "internalType": "uint32",
              "name": "votesForWorker",
              "type": "uint32"
            },
            {
              "internalType": "uint32",
              "name": "votesForPoster",
              "type": "uint32"
            },
            {
              "internalType": "enum ArbitrationPool.DisputeOutcome",
              "name": "outcome",
              "type": "uint8"
            },
            {
              "internalType": "uint256",
              "name": "openedAt",
              "type": "uint256"
            },
            {
              "internalType": "uint256",
              "name": "resolvedAt",
              "type": "uint256"
            },
            {
              "internalType": "address",
              "name": "paymentToken",
              "type": "address"
            },
            {
              "internalType": "uint256",
              "name": "feePerVote",
              "type": "uint256"
            }
          ],
          "internalType": "struct ArbitrationPool.Dispute",
          "name": "",
          "type": "tuple"
        }
      ],
      "stateMutability": "view",
      "type": "function"
    },
    {
      "inputs": [
        {
          "internalType": "uint256",
          "name": "",
          "type": "uint256"
        },
        {
          "internalType": "address",
          "name": "",
          "type": "address"
        }
      ],
      "name": "hasVoted",
      "outputs": [
        {
          "internalType": "bool",
          "name": "",
          "type": "bool"
        }
      ],
      "stateMutability": "view",
      "type": "function"
    },
    {
      "inputs": [
        {
          "internalType": "address",
          "name": "",
          "type": "address"
        }
      ],
      "name": "isArbitrator",
      "outputs": [
        {
          "internalType": "bool",
          "name": "",
          "type": "bool"
        }
      ],
      "stateMutability": "view",
      "type": "function"
    },
    {
      "inputs": [
        {
          "internalType": "uint256",
          "name": "taskId",
          "type": "uint256"
        },
        {
          "internalType": "address",
          "name": "worker",
          "type": "address"
        },
        {
          "internalType": "address",
          "name": "poster",
          "type": "address"
        }
      ],
      "name": "openDispute",
      "outputs": [
        {
          "internalType": "uint256",
          "name": "disputeId",
          "type": "uint256"
        }
      ],
      "stateMutability": "nonpayable",
      "type": "function"
    },
    {
      "inputs": [],
      "name": "owner",
      "outputs": [
        {
          "internalType": "address",
          "name": "",
          "type": "address"
        }
      ],
      "stateMutability": "view",
      "type": "function"
    },
    {
      "inputs": [
        {
          "internalType": "uint256",
          "name": "",
          "type": "uint256"
        },
        {
          "internalType": "address",
          "name": "",
          "type": "address"
        }
      ],
      "name": "pendingFees",
      "outputs": [
        {
          "internalType": "uint256",
          "name": "",
          "type": "uint256"
        }
      ],
      "stateMutability": "view",
      "type": "function"
    },
    {
      "inputs": [],
      "name": "registerArbitrator",
      "outputs": [],
      "stateMutability": "nonpayable",
      "type": "function"
    },
    {
      "inputs": [
        {
          "internalType": "address",
          "name": "arb",
          "type": "address"
        }
      ],
      "name": "removeArbitrator",
      "outputs": [],
      "stateMutability": "nonpayable",
      "type": "function"
    },
    {
      "inputs": [],
      "name": "reputation",
      "outputs": [
        {
          "internalType": "contract WorkerReputation",
          "name": "",
          "type": "address"
        }
      ],
      "stateMutability": "view",
      "type": "function"
    },
    {
      "inputs": [
        {
          "internalType": "address",
          "name": "token",
          "type": "address"
        },
        {
          "internalType": "uint256",
          "name": "feePerVote",
          "type": "uint256"
        }
      ],
      "name": "setDefaultFee",
      "outputs": [],
      "stateMutability": "nonpayable",
      "type": "function"
    },
    {
      "inputs": [
        {
          "internalType": "address",
          "name": "_escrow",
          "type": "address"
        }
      ],
      "name": "setEscrow",
      "outputs": [],
      "stateMutability": "nonpayable",
      "type": "function"
    },
    {
      "inputs": [
        {
          "internalType": "uint256",
          "name": "",
          "type": "uint256"
        }
      ],
      "name": "taskDispute",
      "outputs": [
        {
          "internalType": "uint256",
          "name": "",
          "type": "uint256"
        }
      ],
      "stateMutability": "view",
      "type": "function"
    },
    {
      "inputs": [
        {
          "internalType": "address",
          "name": "",
          "type": "address"
        }
      ],
      "name": "totalFeesEarned",
      "outputs": [
        {
          "internalType": "uint256",
          "name": "",
          "type": "uint256"
        }
      ],
      "stateMutability": "view",
      "type": "function"
    },
    {
      "inputs": [
        {
          "internalType": "uint256",
          "name": "disputeId",
          "type": "uint256"
        },
        {
          "internalType": "bool",
          "name": "inFavourOfWorker",
          "type": "bool"
        }
      ],
      "name": "vote",
      "outputs": [],
      "stateMutability": "nonpayable",
      "type": "function"
    }
  ],
  "bytecode": "0x60a0346100c457601f61128338819003918201601f19168301916001600160401b038311848410176100c8578084926060946040528339810103126100c457610047816100dc565b906040610056602083016100dc565b910151916001600160a01b031680156100b55760805260018060a01b031660018060a01b031960035416176003556002553360018060a01b03195f5416175f5560405161119290816100f182396080518181816107ef0152610d990152f35b63d92e233d60e01b5f5260045ffd5b5f80fd5b634e487b7160e01b5f52604160045260245ffd5b51906001600160a01b03821682036100c45756fe60806040526004361015610011575f80fd5b5f3560e01c806301fabd7514610e9e5780630f03555614610d6e5780631414de1c14610d515780631923c96f14610d345780632e80d9b614610d1957806339df81d214610cf15780634385963214610ca8578063564a565d14610bf05780636cac738814610bc65780637852d539146109a45780638607ac721461096c5780638da5cb5b14610945578063973ad270146108d75780639f6bd2a91461089a578063a28889e11461087d578063c10c35461461081e578063c52164c6146107da578063c97467b414610779578063c9d27afe14610432578063e2fdcc171461040a578063e3a96cbd14610286578063f667526a1461015e5763fc0072e814610116575f80fd5b3461015a57604036600319011261015a5761012f610f49565b6004355f52600a60205260405f209060018060a01b03165f52602052602060405f2054604051908152f35b5f80fd5b3461015a57602036600319011261015a57600435335f52600760205260ff60405f20541615610277575f818152600a6020908152604080832033845290915290205490811561026857805f52600560205260405f209060ff600283015460e01c1660038110156102545715610245575f908152600a602090815260408083203380855292528220919091556005909101546102039183916001600160a01b03166110b5565b15610236576040519081527f20ca5094f3a20c321cbe4123d0f01b276b81df0fa24cd4d83d9253956035d86360203392a2005b6312171d8360e31b5f5260045ffd5b6325ddc86360e01b5f5260045ffd5b634e487b7160e01b5f52602160045260245ffd5b6312d37ee560e31b5f5260045ffd5b63667f86ef60e01b5f5260045ffd5b3461015a57602036600319011261015a575f6101206040516102a781610ffc565b8281528260208201528260408201528260608201528260808201528260a08201528260c08201528260e08201528261010082015201526004355f52600560205260405f206040516102f781610ffc565b8154815260018060a01b03600183015416602082019081526002830154604083019360018060a01b0382168552606084019463ffffffff8360a01c16865260ff608086019363ffffffff8160c01c16855260e01c1660a0860160038210156102545763ffffffff8795816101409a6103e595855260038801549660c08a01978852600660048a01549960e08c019a8b5261010060018060a01b036005830154169c019b8c5201549a6101208d019b8c526040519c518d5260018060a01b0390511660208d015260018060a01b0390511660408c0152511660608a0152511660808801525160a0870190610f5f565b5160c08501525160e0840152516001600160a01b031661010083015251610120820152f35b3461015a575f36600319011261015a576001546040516001600160a01b039091168152602090f35b3461015a57604036600319011261015a576004356024358015159081810361015a57335f52600760205260ff60405f20541615610277575f83815260096020908152604080832033845290915290205460ff1661076a57825f52600560205260405f2091600283019160ff835460e01c16600381101561025457610245575f85815260096020908152604080832033808552908352818420805460ff191660011790556006880154898552600a8452828520918552908352818420819055600b909252909120805491820191821061075657551561071b5761054061052063ffffffff845460a01c1661105f565b835463ffffffff60a01b191660a09190911b63ffffffff60a01b16178355565b604051908152837fe71fcdac32df1877c1700e7bda2a03157e20993363a28fc35ac495cefc76e4d460203393a38054600360a082901c63ffffffff161061066457505f916105906001849361103b565b4260048201556001805482549282015460405163326dc27360e11b6020820190815260248201959095526001600160a01b03918216604482015260648082019490945292835216919083906105e6608482611019565b51925af16105f2611076565b50156106265760405160208160017f2ffcfee146bc0d5ff304c6b65111a0d485af9456dc64eee7d66ebdcc90b223ea9352a2005b60405162461bcd60e51b8152602060048201526016602482015275115cd8dc9bddc818d85b1b189858dac819985a5b195960521b6044820152606490fd5b63ffffffff60039160c01c16101561067857005b5f916106866002849361103b565b426004820155600180548254919092015460405163326dc27360e11b6020820190815260248201939093526001600160a01b0391821660448201526064808201869052815292169183906106db608482611019565b51925af16106e7611076565b50156106265760405160208160027f2ffcfee146bc0d5ff304c6b65111a0d485af9456dc64eee7d66ebdcc90b223ea9352a2005b61075161073163ffffffff845460c01c1661105f565b835463ffffffff60c01b191660c09190911b63ffffffff60c01b16178355565b610540565b634e487b7160e01b5f52601160045260245ffd5b637c9a1cf960e01b5f5260045ffd5b3461015a57604036600319011261015a57610792610f33565b5f546001600160a01b031633036107cb57600380546001600160a01b0319166001600160a01b0392909216919091179055602435600255005b6330cd747160e01b5f5260045ffd5b3461015a575f36600319011261015a576040517f00000000000000000000000000000000000000000000000000000000000000006001600160a01b03168152602090f35b3461015a57602036600319011261015a57610837610f33565b5f546001600160a01b031633036107cb576001600160a01b0316801561086e576001600160601b0360a01b60015416176001555f80f35b63d92e233d60e01b5f5260045ffd5b3461015a575f36600319011261015a576020600454604051908152f35b3461015a57602036600319011261015a576001600160a01b036108bb610f33565b165f526007602052602060ff60405f2054166040519015158152f35b3461015a57602036600319011261015a576108f0610f33565b5f546001600160a01b031633036107cb576001600160a01b03165f818152600760205260408120805460ff191690557f715484adb5bc9cc29af577725dbf8486d0b82eca3ba79f65846e92ff38ef32b59080a2005b3461015a575f36600319011261015a575f546040516001600160a01b039091168152602090f35b3461015a57602036600319011261015a576001600160a01b0361098d610f33565b165f52600b602052602060405f2054604051908152f35b3461015a57606036600319011261015a576004356109c0610f49565b6044356001600160a01b038116929083900361015a576001546001600160a01b03163303610bb7576004545f198114610756576001019182600455815f5260066020528260405f2055600160a01b6001900360035416936002549060405190610a2882610ffc565b8482526020820193600160a01b600190031690818552604083019281845260608101945f8652608082015f815260a08301905f825260c084019742895260e08501995f8b5261010086019d8e5261012086019485528c5f52600560205260405f2095518655600160a01b600190039051166001860190600160a01b60019003166001600160601b0360a01b8254161790556002850197600160a01b6001900390600160a01b60019003905116166001600160601b0360a01b8954161788555163ffffffff16610b1390889081549063ffffffff60a01b9060a01b169063ffffffff60a01b1916179055565b51865463ffffffff60c01b191660c09190911b63ffffffff60c01b16178655519060038210156102545760209a8a987f4544066eaf21c782101e776f47dd208675a13a30c0d4c859d162374138053c0098610b7260069560409a61103b565b516003860155516004850155516005840180546001600160a01b0319166001600160a01b039290921691909117905551910155825191825287820152a3604051908152f35b637e223fb160e11b5f5260045ffd5b3461015a57602036600319011261015a576004355f526006602052602060405f2054604051908152f35b3461015a57602036600319011261015a576004355f52600560205261014060405f2080549060018060a01b036001820154169060028101546003820154610c90600484015492600660018060a01b0360058701541695015495604051978852602088015260018060a01b038116604088015263ffffffff8160a01c16606088015263ffffffff8160c01c16608088015260ff60a088019160e01c16610f5f565b60c085015260e0840152610100830152610120820152f35b3461015a57604036600319011261015a57610cc1610f49565b6004355f52600960205260405f209060018060a01b03165f52602052602060ff60405f2054166040519015158152f35b3461015a575f36600319011261015a576003546040516001600160a01b039091168152602090f35b3461015a575f36600319011261015a57602060405160038152f35b3461015a575f36600319011261015a576020600854604051908152f35b3461015a575f36600319011261015a576020600254604051908152f35b3461015a575f36600319011261015a57604051635a2d572960e11b81523360048201526020816024817f00000000000000000000000000000000000000000000000000000000000000006001600160a01b03165afa908115610e93575f91610e56575b5060ff6002911610610e4757335f52600760205260ff60405f205416610e3857335f52600760205260405f20600160ff19825416179055610e1133610f6c565b337fc80bad7f86a895f590d6beaa663ccf7f0de84f1fd2a042b944433700879d61225f80a2005b63620d909760e11b5f5260045ffd5b63d7e0dc2760e01b5f5260045ffd5b90506020813d602011610e8b575b81610e7160209383611019565b8101031261015a575160ff8116810361015a5760ff610dd1565b3d9150610e64565b6040513d5f823e3d90fd5b3461015a57602036600319011261015a57610eb7610f33565b5f546001600160a01b031633036107cb576001600160a01b03811690811561086e57815f52600760205260ff60405f205416610e3857610f0d90825f52600760205260405f20600160ff19825416179055610f6c565b7fc80bad7f86a895f590d6beaa663ccf7f0de84f1fd2a042b944433700879d61225f80a2005b600435906001600160a01b038216820361015a57565b602435906001600160a01b038216820361015a57565b9060038210156102545752565b60085468010000000000000000811015610fe8576001810180600855811015610fd45760085f527ff3f7a9fe364faab93b216da50a3214154f22a0a2b415b23a84c8169e8b636ee30180546001600160a01b0319166001600160a01b03909216919091179055565b634e487b7160e01b5f52603260045260245ffd5b634e487b7160e01b5f52604160045260245ffd5b610140810190811067ffffffffffffffff821117610fe857604052565b90601f8019910116810190811067ffffffffffffffff821117610fe857604052565b90600381101561025457815460ff60e01b191660e09190911b60ff60e01b16179055565b63ffffffff1663ffffffff81146107565760010190565b3d156110b0573d9067ffffffffffffffff8211610fe857604051916110a5601f8201601f191660200184611019565b82523d5f602084013e565b606090565b9091906001600160a01b038116158015611154575b61114c575f9283809360405190602082019363a9059cbb60e01b855260018060a01b03166024830152604482015260448152611107606482611019565b51925af1611113611076565b8161111c575090565b805180159250821561112d57505090565b819250906020918101031261015a5760200151801515810361015a5790565b505050600190565b5081156110ca56fea26469706673582212209beab920c4ad7ed9c1a380054efbae21c09be0d608de546e4f46b6a2bccf9a1f64736f6c634300081c0033",
  "linkReferences": {},
  "deployedLinkReferences": {},
  "immutableReferences": {
    "39": [
      {
        "length": 32,
        "start": 2031
      },
      {
        "length": 32,
        "start": 3481
      }
    ]
  },
  "inputSourceName": "project/contracts/ArbitrationPool.sol",
  "buildInfoId": "solc-0_8_28-913935478f59d338be9e56112b836f8ee1050b6e"
}