{
  "_format": "hh3-artifact-1",
  "contractName": "TaskEscrow",
  "sourceName": "contracts/TaskEscrow.sol",
  "abi": [
    {
      "inputs": [
        {
          "internalType": "address",
          "name": "_reputation",
          "type": "address"
        },
        {
          "internalType": "address",
          "name": "_arbitration",
          "type": "address"
        },
        {
          "internalType": "address",
          "name": "_verifier",
          "type": "address"
        },
        {
          "internalType": "uint16",
          "name": "_platformFeeBps",
          "type": "uint16"
        }
      ],
      "stateMutability": "nonpayable",
      "type": "constructor"
    },
    {
      "inputs": [],
      "name": "AlreadyJoined",
      "type": "error"
    },
    {
      "inputs": [],
      "name": "AlreadySubmitted",
      "type": "error"
    },
    {
      "inputs": [],
      "name": "DeadlineMustBeFuture",
      "type": "error"
    },
    {
      "inputs": [],
      "name": "InsufficientEscrow",
      "type": "error"
    },
    {
      "inputs": [],
      "name": "InvalidSubmissionStatus",
      "type": "error"
    },
    {
      "inputs": [],
      "name": "MaxWorkersMustBePositive",
      "type": "error"
    },
    {
      "inputs": [],
      "name": "NotJoined",
      "type": "error"
    },
    {
      "inputs": [],
      "name": "NotOwner",
      "type": "error"
    },
    {
      "inputs": [],
      "name": "NotPoster",
      "type": "error"
    },
    {
      "inputs": [],
      "name": "NotVerifier",
      "type": "error"
    },
    {
      "inputs": [],
      "name": "TaskExpired",
      "type": "error"
    },
    {
      "inputs": [],
      "name": "TaskFull",
      "type": "error"
    },
    {
      "inputs": [],
      "name": "TaskNotOpen",
      "type": "error"
    },
    {
      "inputs": [],
      "name": "TransferFailed",
      "type": "error"
    },
    {
      "inputs": [],
      "name": "WorkerNotVerified",
      "type": "error"
    },
    {
      "inputs": [],
      "name": "ZeroAddress",
      "type": "error"
    },
    {
      "anonymous": false,
      "inputs": [
        {
          "indexed": true,
          "internalType": "address",
          "name": "token",
          "type": "address"
        },
        {
          "indexed": false,
          "internalType": "uint256",
          "name": "amount",
          "type": "uint256"
        }
      ],
      "name": "FeesWithdrawn",
      "type": "event"
    },
    {
      "anonymous": false,
      "inputs": [
        {
          "indexed": true,
          "internalType": "uint256",
          "name": "taskId",
          "type": "uint256"
        },
        {
          "indexed": true,
          "internalType": "address",
          "name": "worker",
          "type": "address"
        },
        {
          "indexed": false,
          "internalType": "string",
          "name": "proofData",
          "type": "string"
        }
      ],
      "name": "ProofSubmitted",
      "type": "event"
    },
    {
      "anonymous": false,
      "inputs": [
        {
          "indexed": true,
          "internalType": "uint256",
          "name": "taskId",
          "type": "uint256"
        },
        {
          "indexed": true,
          "internalType": "address",
          "name": "worker",
          "type": "address"
        },
        {
          "indexed": false,
          "internalType": "uint256",
          "name": "payout",
          "type": "uint256"
        }
      ],
      "name": "SubmissionApproved",
      "type": "event"
    },
    {
      "anonymous": false,
      "inputs": [
        {
          "indexed": true,
          "internalType": "uint256",
          "name": "taskId",
          "type": "uint256"
        },
        {
          "indexed": true,
          "internalType": "address",
          "name": "worker",
          "type": "address"
        }
      ],
      "name": "SubmissionDisputed",
      "type": "event"
    },
    {
      "anonymous": false,
      "inputs": [
        {
          "indexed": true,
          "internalType": "uint256",
          "name": "taskId",
          "type": "uint256"
        },
        {
          "indexed": true,
          "internalType": "address",
          "name": "worker",
          "type": "address"
        },
        {
          "indexed": false,
          "internalType": "string",
          "name": "reason",
          "type": "string"
        }
      ],
      "name": "SubmissionRejected",
      "type": "event"
    },
    {
      "anonymous": false,
      "inputs": [
        {
          "indexed": true,
          "internalType": "uint256",
          "name": "taskId",
          "type": "uint256"
        }
      ],
      "name": "TaskCancelled",
      "type": "event"
    },
    {
      "anonymous": false,
      "inputs": [
        {
          "indexed": true,
          "internalType": "uint256",
          "name": "taskId",
          "type": "uint256"
        },
        {
          "indexed": true,
          "internalType": "address",
          "name": "poster",
          "type": "address"
        },
        {
          "indexed": false,
          "internalType": "bool",
          "name": "isPaid",
          "type": "bool"
        },
        {
          "indexed": false,
          "internalType": "uint256",
          "name": "bountyPerWorker",
          "type": "uint256"
        },
        {
          "indexed": false,
          "internalType": "uint32",
          "name": "maxWorkers",
          "type": "uint32"
        },
        {
          "indexed": false,
          "internalType": "enum TaskEscrow.VerificationMethod",
          "name": "verificationMethod",
          "type": "uint8"
        }
      ],
      "name": "TaskCreated",
      "type": "event"
    },
    {
      "anonymous": false,
      "inputs": [
        {
          "indexed": true,
          "internalType": "uint256",
          "name": "taskId",
          "type": "uint256"
        },
        {
          "indexed": true,
          "internalType": "address",
          "name": "worker",
          "type": "address"
        }
      ],
      "name": "WorkerJoined",
      "type": "event"
    },
    {
      "anonymous": false,
      "inputs": [
        {
          "indexed": true,
          "internalType": "address",
          "name": "worker",
          "type": "address"
        }
      ],
      "name": "WorkerVerified",
      "type": "event"
    },
    {
      "inputs": [
        {
          "internalType": "uint256",
          "name": "taskId",
          "type": "uint256"
        },
        {
          "internalType": "address",
          "name": "worker",
          "type": "address"
        }
      ],
      "name": "approveSubmission",
      "outputs": [],
      "stateMutability": "nonpayable",
      "type": "function"
    },
    {
      "inputs": [],
      "name": "arbitration",
      "outputs": [
        {
          "internalType": "contract ArbitrationPool",
          "name": "",
          "type": "address"
        }
      ],
      "stateMutability": "view",
      "type": "function"
    },
    {
      "inputs": [
        {
          "internalType": "uint256",
          "name": "taskId",
          "type": "uint256"
        }
      ],
      "name": "cancelTask",
      "outputs": [],
      "stateMutability": "nonpayable",
      "type": "function"
    },
    {
      "inputs": [
        {
          "components": [
            {
              "internalType": "string",
              "name": "title",
              "type": "string"
            },
            {
              "internalType": "string",
              "name": "description",
              "type": "string"
            },
            {
              "internalType": "string",
              "name": "category",
              "type": "string"
            },
            {
              "internalType": "uint256",
              "name": "bountyPerWorker",
              "type": "uint256"
            },
            {
              "internalType": "address",
              "name": "paymentToken",
              "type": "address"
            },
            {
              "internalType": "uint32",
              "name": "maxWorkers",
              "type": "uint32"
            },
            {
              "internalType": "uint64",
              "name": "deadline",
              "type": "uint64"
            },
            {
              "internalType": "enum TaskEscrow.VerificationMethod",
              "name": "verificationMethod",
              "type": "uint8"
            },
            {
              "internalType": "string",
              "name": "verificationRef",
              "type": "string"
            }
          ],
          "internalType": "struct TaskEscrow.TaskParams",
          "name": "p",
          "type": "tuple"
        }
      ],
      "name": "createTask",
      "outputs": [
        {
          "internalType": "uint256",
          "name": "taskId",
          "type": "uint256"
        }
      ],
      "stateMutability": "nonpayable",
      "type": "function"
    },
    {
      "inputs": [
        {
          "internalType": "address",
          "name": "",
          "type": "address"
        }
      ],
      "name": "feesCollected",
      "outputs": [
        {
          "internalType": "uint256",
          "name": "",
          "type": "uint256"
        }
      ],
      "stateMutability": "view",
      "type": "function"
    },
    {
      "inputs": [
        {
          "internalType": "uint256",
          "name": "taskId",
          "type": "uint256"
        },
        {
          "internalType": "address",
          "name": "worker",
          "type": "address"
        }
      ],
      "name": "getSubmission",
      "outputs": [
        {
          "components": [
            {
              "internalType": "address",
              "name": "worker",
              "type": "address"
            },
            {
              "internalType": "string",
              "name": "proofData",
              "type": "string"
            },
            {
              "internalType": "enum TaskEscrow.SubmissionStatus",
              "name": "status",
              "type": "uint8"
            },
            {
              "internalType": "string",
              "name": "rejectionReason",
              "type": "string"
            },
            {
              "internalType": "uint256",
              "name": "submittedAt",
              "type": "uint256"
            }
          ],
          "internalType": "struct TaskEscrow.Submission",
          "name": "",
          "type": "tuple"
        }
      ],
      "stateMutability": "view",
      "type": "function"
    },
    {
      "inputs": [
        {
          "internalType": "uint256",
          "name": "taskId",
          "type": "uint256"
        }
      ],
      "name": "getTask",
      "outputs": [
        {
          "components": [
            {
              "internalType": "uint256",
              "name": "id",
              "type": "uint256"
            },
            {
              "internalType": "address",
              "name": "poster",
              "type": "address"
            },
            {
              "internalType": "string",
              "name": "title",
              "type": "string"
            },
            {
              "internalType": "string",
              "name": "description",
              "type": "string"
            },
            {
              "internalType": "string",
              "name": "category",
              "type": "string"
            },
            {
              "internalType": "bool",
              "name": "isPaid",
              "type": "bool"
            },
            {
              "internalType": "uint256",
              "name": "bountyPerWorker",
              "type": "uint256"
            },
            {
              "internalType": "address",
              "name": "paymentToken",
              "type": "address"
            },
            {
              "internalType": "uint32",
              "name": "maxWorkers",
              "type": "uint32"
            },
            {
              "internalType": "uint32",
              "name": "currentWorkers",
              "type": "uint32"
            },
            {
              "internalType": "uint32",
              "name": "approvedCount",
              "type": "uint32"
            },
            {
              "internalType": "uint64",
              "name": "deadline",
              "type": "uint64"
            },
            {
              "internalType": "enum TaskEscrow.TaskStatus",
              "name": "status",
              "type": "uint8"
            },
            {
              "internalType": "enum TaskEscrow.VerificationMethod",
              "name": "verificationMethod",
              "type": "uint8"
            },
            {
              "internalType": "string",
              "name": "verificationRef",
              "type": "string"
            },
            {
              "internalType": "uint256",
              "name": "totalEscrowed",
              "type": "uint256"
            }
          ],
          "internalType": "struct TaskEscrow.Task",
          "name": "",
          "type": "tuple"
        }
      ],
      "stateMutability": "view",
      "type": "function"
    },
    {
      "inputs": [
        {
          "internalType": "uint256",
          "name": "taskId",
          "type": "uint256"
        }
      ],
      "name": "getTaskWorkers",
      "outputs": [
        {
          "internalType": "address[]",
          "name": "",
          "type": "address[]"
        }
      ],
      "stateMutability": "view",
      "type": "function"
    },
    {
      "inputs": [
        {
          "internalType": "uint256",
          "name": "",
          "type": "uint256"
        },
        {
          "internalType": "address",
          "name": "",
          "type": "address"
        }
      ],
      "name": "hasJoined",
      "outputs": [
        {
          "internalType": "bool",
          "name": "",
          "type": "bool"
        }
      ],
      "stateMutability": "view",
      "type": "function"
    },
    {
      "inputs": [
        {
          "internalType": "uint256",
          "name": "taskId",
          "type": "uint256"
        }
      ],
      "name": "joinTask",
      "outputs": [],
      "stateMutability": "nonpayable",
      "type": "function"
    },
    {
      "inputs": [],
      "name": "owner",
      "outputs": [
        {
          "internalType": "address",
          "name": "",
          "type": "address"
        }
      ],
      "stateMutability": "view",
      "type": "function"
    },
    {
      "inputs": [],
      "name": "platformFeeBps",
      "outputs": [
        {
          "internalType": "uint16",
          "name": "",
          "type": "uint16"
        }
      ],
      "stateMutability": "view",
      "type": "function"
    },
    {
      "inputs": [
        {
          "internalType": "uint256",
          "name": "taskId",
          "type": "uint256"
        },
        {
          "internalType": "address",
          "name": "worker",
          "type": "address"
        }
      ],
      "name": "raiseDispute",
      "outputs": [],
      "stateMutability": "nonpayable",
      "type": "function"
    },
    {
      "inputs": [
        {
          "internalType": "uint256",
          "name": "taskId",
          "type": "uint256"
        },
        {
          "internalType": "address",
          "name": "worker",
          "type": "address"
        },
        {
          "internalType": "string",
          "name": "reason",
          "type": "string"
        }
      ],
      "name": "rejectSubmission",
      "outputs": [],
      "stateMutability": "nonpayable",
      "type": "function"
    },
    {
      "inputs": [],
      "name": "reputation",
      "outputs": [
        {
          "internalType": "contract WorkerReputation",
          "name": "",
          "type": "address"
        }
      ],
      "stateMutability": "view",
      "type": "function"
    },
    {
      "inputs": [
        {
          "internalType": "uint256",
          "name": "taskId",
          "type": "uint256"
        },
        {
          "internalType": "address",
          "name": "worker",
          "type": "address"
        },
        {
          "internalType": "bool",
          "name": "inFavourOfWorker",
          "type": "bool"
        }
      ],
      "name": "resolveDispute",
      "outputs": [],
      "stateMutability": "nonpayable",
      "type": "function"
    },
    {
      "inputs": [
        {
          "internalType": "uint16",
          "name": "bps",
          "type": "uint16"
        }
      ],
      "name": "setPlatformFee",
      "outputs": [],
      "stateMutability": "nonpayable",
      "type": "function"
    },
    {
      "inputs": [
        {
          "internalType": "address",
          "name": "_verifier",
          "type": "address"
        }
      ],
      "name": "setVerifier",
      "outputs": [],
      "stateMutability": "nonpayable",
      "type": "function"
    },
    {
      "inputs": [
        {
          "internalType": "address",
          "name": "worker",
          "type": "address"
        }
      ],
      "name": "setWorkerVerified",
      "outputs": [],
      "stateMutability": "nonpayable",
      "type": "function"
    },
    {
      "inputs": [
        {
          "internalType": "uint256",
          "name": "",
          "type": "uint256"
        },
        {
          "internalType": "address",
          "name": "",
          "type": "address"
        }
      ],
      "name": "submissions",
      "outputs": [
        {
          "internalType": "address",
          "name": "worker",
          "type": "address"
        },
        {
          "internalType": "string",
          "name": "proofData",
          "type": "string"
        },
        {
          "internalType": "enum TaskEscrow.SubmissionStatus",
          "name": "status",
          "type": "uint8"
        },
        {
          "internalType": "string",
          "name": "rejectionReason",
          "type": "string"
        },
        {
          "internalType": "uint256",
          "name": "submittedAt",
          "type": "uint256"
        }
      ],
      "stateMutability": "view",
      "type": "function"
    },
    {
      "inputs": [
        {
          "internalType": "uint256",
          "name": "taskId",
          "type": "uint256"
        },
        {
          "internalType": "string",
          "name": "proofData",
          "type": "string"
        }
      ],
      "name": "submitProof",
      "outputs": [],
      "stateMutability": "nonpayable",
      "type": "function"
    },
    {
      "inputs": [],
      "name": "taskCount",
      "outputs": [
        {
          "internalType": "uint256",
          "name": "",
          "type": "uint256"
        }
      ],
      "stateMutability": "view",
      "type": "function"
    },
    {
      "inputs": [
        {
          "internalType": "uint256",
          "name": "",
          "type": "uint256"
        }
      ],
      "name": "tasks",
      "outputs": [
        {
          "internalType": "uint256",
          "name": "id",
          "type": "uint256"
        },
        {
          "internalType": "address",
          "name": "poster",
          "type": "address"
        },
        {
          "internalType": "string",
          "name": "title",
          "type": "string"
        },
        {
          "internalType": "string",
          "name": "description",
          "type": "string"
        },
        {
          "internalType": "string",
          "name": "category",
          "type": "string"
        },
        {
          "internalType": "bool",
          "name": "isPaid",
          "type": "bool"
        },
        {
          "internalType": "uint256",
          "name": "bountyPerWorker",
          "type": "uint256"
        },
        {
          "internalType": "address",
          "name": "paymentToken",
          "type": "address"
        },
        {
          "internalType": "uint32",
          "name": "maxWorkers",
          "type": "uint32"
        },
        {
          "internalType": "uint32",
          "name": "currentWorkers",
          "type": "uint32"
        },
        {
          "internalType": "uint32",
          "name": "approvedCount",
          "type": "uint32"
        },
        {
          "internalType": "uint64",
          "name": "deadline",
          "type": "uint64"
        },
        {
          "internalType": "enum TaskEscrow.TaskStatus",
          "name": "status",
          "type": "uint8"
        },
        {
          "internalType": "enum TaskEscrow.VerificationMethod",
          "name": "verificationMethod",
          "type": "uint8"
        },
        {
          "internalType": "string",
          "name": "verificationRef",
          "type": "string"
        },
        {
          "internalType": "uint256",
          "name": "totalEscrowed",
          "type": "uint256"
        }
      ],
      "stateMutability": "view",
      "type": "function"
    },
    {
      "inputs": [],
      "name": "verifier",
      "outputs": [
        {
          "internalType": "address",
          "name": "",
          "type": "address"
        }
      ],
      "stateMutability": "view",
      "type": "function"
    },
    {
      "inputs": [
        {
          "internalType": "address",
          "name": "token",
          "type": "address"
        }
      ],
      "name": "withdrawFees",
      "outputs": [],
      "stateMutability": "nonpayable",
      "type": "function"
    },
    {
      "inputs": [
        {
          "internalType": "address",
          "name": "",
          "type": "address"
        }
      ],
      "name": "workerVerified",
      "outputs": [
        {
          "internalType": "bool",
          "name": "",
          "type": "bool"
        }
      ],
      "stateMutability": "view",
      "type": "function"
    }
  ],
  "bytecode": "0x60c03461015157601f612c1b38819003918201601f19168301916001600160401b03831184841017610155578084926080946040528339810103126101515761004781610169565b61005360208301610169565b606061006160408501610169565b9301519161ffff83168303610151576001600160a01b031680158015610140575b801561012f575b610120576080526001600160a01b0390811660a0908152600180546001600160b01b03191694909216939093179190921b61ffff60a01b161790555f80546001600160a01b03191633179055604051612a9d908161017e82396080518181816109e501528181610e5301528181611438015281816115930152612414015260a051818181610a870152818161138001526122220152f35b63d92e233d60e01b5f5260045ffd5b506001600160a01b03841615610089565b506001600160a01b03821615610082565b5f80fd5b634e487b7160e01b5f52604160045260245ffd5b51906001600160a01b03821682036101515756fe6080806040526004361015610012575f80fd5b5f905f3560e01c90816302d64b5214612557575080630494808d146122cf5780630c1a0b0d146121325780630e4dbf5c14612082578063164e68de14611fdb5780631d65e77e14611d0d57806322dcd13e14611ce85780632af005101461194f5780632b7ac3f3146119265780635437988d146118c257806355f0e221146117a05780635b2478ea146117675780635cbc742c146116c857806364db84e614611354578063681947191461130a5780637b23b40a146111145780637eec20a814610fdb57806383a3ca0314610cc85780638d97767214610b5f5780638da5cb5b14610b385780638e784f9714610ab65780639b73235014610a71578063b6cb58a514610a53578063bcb7bf7c14610a14578063c52164c6146109cf5763dad8583d1461013c575f80fd5b346109cc5760203660031901126109cc576001600160401b03600435116109cc57610120600435360360031901126109cc5763ffffffff61018160a46004350161291f565b16156109bd5760c4600435019061019782612930565b6001600160401b0342911611156109ae578060646004350135610875575b600254915f19831461086157600183016002556101d6600480350180612978565b946101eb602460043501600435600401612978565b9190610201604460043501600435600401612978565b600435606401351561085a5761021b608460043501612944565b925b61023461022e60a46004350161291f565b95612930565b95600560e460043501351015610856578a9695949392919061025f6004803561010481019101612978565b9890996040519e8f9261027184612670565b6001018352336020840152369061028792612861565b9060400152369061029792612861565b60608c015236906102a792612861565b60808a015260043560640135151560a08a01526004356064013560c08a0152600160a01b600190031660e089015263ffffffff1661010088015284610120880152846101408801526001600160401b03166101608701528361018087015260043560e40135610315906127a0565b60043560e401356101a0870152369061032d92612861565b6101c08501526101e084015260018281018252600360209081526040808420865181559186015192820180546001600160a01b0319166001600160a01b039490941693909317909255908401518051906001600160401b038211610772576103a58261039c6002860154612638565b60028601612897565b602090601f83116001146107ee576103d4929185918361067e575b50508160011b915f199060031b1c19161790565b60028201555b60608401518051906001600160401b0382116107725761040a826104016003860154612638565b60038601612897565b602090601f831160011461078657610438929185918361067e5750508160011b915f199060031b1c19161790565b60038201555b60808401518051906001600160401b0382116107725761046e826104656004860154612638565b60048601612897565b602090601f83116001146107055761049c929185918361067e5750508160011b915f199060031b1c19161790565b60048201555b60a08481015160058301805460ff9215159290921660ff1990921691909117905560c080860151600684015560e0808701516101008801516101208901516101408a015190931b6001600160e01b0319166001600160a01b03909216941b63ffffffff60a01b1693909317911b63ffffffff60c01b1617176007820155600881016001600160401b03610160860151166001600160401b0319825416178155610559610180860151610553816127a0565b82612823565b6101a0850151610568816127a0565b610571816127a0565b60ff60481b82549160481b169060ff60481b191617905560098101936101c08101519485516001600160401b0381116106f1576020966105bb826105b58554612638565b85612897565b8790601f83116001146106895782600a95936101e095936105f0938a9261067e5750508160011b915f199060031b1c19161790565b90555b015191015561060660a46004350161291f565b905063ffffffff604051916064600435013515158352606460043501358584015216604082015261063c60e460043501356127a0565b60e46004350135606082015233907f9ea889c4508163d3292ea68f73c965bffaec4ebaedcd47fb584b4f4dd9eec17860806001850192a3600160405191018152f35b015190505f806103c0565b8387528187209190601f198416885b8181106106da5750926001928592600a98966101e09896106106c2575b505050811b0190556105f3565b01515f1960f88460031b161c191690555f80806106b5565b92938b600181928786015181550195019301610698565b634e487b7160e01b85526041600452602485fd5b91906004840185528085209085935b601f1984168510610757576001945083601f1981161061073f575b505050811b0160048201556104a2565b01515f1960f88460031b161c191690555f808061072f565b81810151835560209485019460019093019290910190610714565b634e487b7160e01b84526041600452602484fd5b6003840185528185209190601f198416865b8181106107d657509084600195949392106107be575b505050811b01600382015561043e565b01515f1960f88460031b161c191690555f80806107ae565b92936020600181928786015181550195019301610798565b6002840185528185209190601f198416865b81811061083e5750908460019594939210610826575b505050811b0160028201556103da565b01515f1960f88460031b161c191690555f8080610816565b92936020600181928786015181550195019301610800565b8980fd5b879261021d565b634e487b7160e01b82526011600452602482fd5b90506004356084016001600160a01b0361088e82612944565b161561099f576108b763ffffffff6108aa60a46004350161291f565b1660646004350135612958565b906127106108ce61ffff60015460a01c1684612958565b049083806108db83612944565b6108e5858761296b565b8260405160208101926323b872dd60e01b84523360248301523060448301526064820152606481526109186084826126bb565b51925af16109246129aa565b81610970575b5015610961576001600160a01b039061094290612944565b16835260086020526109596040842091825461296b565b9055906101b5565b6312171d8360e31b8452600484fd5b8051801592508215610985575b50505f61092a565b61099892506020809183010191016129d9565b5f8061097d565b63d92e233d60e01b8252600482fd5b63b2592c3560e01b8152600490fd5b639f74067160e01b8152600490fd5b80fd5b50346109cc57806003193601126109cc576040517f00000000000000000000000000000000000000000000000000000000000000006001600160a01b03168152602090f35b50346109cc5760203660031901126109cc5760209060ff906040906001600160a01b03610a3f612622565b168152600784522054166040519015158152f35b50346109cc57806003193601126109cc576020600254604051908152f35b50346109cc57806003193601126109cc576040517f00000000000000000000000000000000000000000000000000000000000000006001600160a01b03168152602090f35b50346109cc5760203660031901126109cc57610ad0612622565b6001546001600160a01b03163303610b29576001600160a01b0316808252600760205260408220805460ff191660011790557fcd90dd85e08b048a3f42366158a3cb42113d51df1892fc7fe241fa144ecfa55b8280a280f35b6312331aab60e11b8252600482fd5b50346109cc57806003193601126109cc57546040516001600160a01b039091168152602090f35b50346109cc5760203660031901126109cc576004358152600360205260409020805460018201546001600160a01b031691610b9c600282016126dc565b90610ba9600382016126dc565b610bb5600483016126dc565b90600583015460ff1691600684015460078501546008860154918260401c60ff16938360481c60ff169560098901610bec906126dc565b98600a0154996040519c8d9c8d5260208d015260408c0161020090526102008c01610c169161277c565b8b810360608d0152610c279161277c565b8a810360808c0152610c389161277c565b95151560a08a015260c0890152600160a01b60019003811660e08901528060a01c63ffffffff166101008901528060c01c63ffffffff1661012089015260e01c6101408801526001600160401b0316610160870152610c96816127a0565b610180860152610ca5816127a0565b6101a08501528381036101c0850152610cbd9161277c565b906101e08301520390f35b50346109cc5760603660031901126109cc5760043590610ce661260c565b6044356001600160401b038111610fd757610d059036906004016127be565b84845260036020526040842060010154909491906001600160a01b03163303610fc8578184526003602052604084209482855260046020526040852060018060a01b0385165f5260205260405f20600281018054600160ff8216610d68816127a0565b03610fb95760ff1916600390811790915501956001600160401b038211610fa557610d9d82610d978954612638565b89612897565b8596601f8311600114610f3f57610dd18380899a6008969798999a91610f34575b508160011b915f199060031b1c19161790565b90555b610e0e60078201610dee63ffffffff825460c01c1661290d565b815463ffffffff60c01b191660c09190911b63ffffffff60c01b16179055565b84875260066020526040872060018060a01b0387165f5260205260405f2060ff198154169055018054600160ff8260401c16610e49816127a0565b14610f24575b50507f00000000000000000000000000000000000000000000000000000000000000006001600160a01b0316938590853b15610f205781809160646040518094819363824471a360e01b835260018060a01b03169a8b60048401528a60248401528160448401525af18015610f1557610efc575b50507f5ef47cdb9e7eebe5d165a6812a3b55b028050ff4c938da57cc05de575d3c362591610ef6604051928392836128e6565b0390a380f35b81610f06916126bb565b610f1157845f610ec3565b8480fd5b6040513d84823e3d90fd5b5080fd5b60ff60401b191690555f80610e4f565b90508701355f610dbe565b80875260208720601f19841698885b8a8110610f8d575084600895969798999a10610f74575b5050600184811b019055610dd4565b8601355f19600387901b60f8161c191690555f80610f65565b9091602060018192858a013581550193019101610f4e565b634e487b7160e01b86526041600452602486fd5b632bf2e2af60e21b8852600488fd5b630edd024760e11b8452600484fd5b8280fd5b50346109cc5760203660031901126109cc57600435808252600360205260408220600101546001600160a01b031633036111055780825260036020526040822060088101805460ff8160401c16611031816127a0565b80151590816110f0575b506110e15760ff60401b191668030000000000000000179055600581015460ff16806110d4575b61108f575b507fc6eacc3aa5b2aa77b5a826b832a804ca0b71830ec74f9aa57a15edd978c31ed68280a280f35b600a810180549084905560078201546001909201546110ba926001600160a01b0391821691166129f1565b156110c5575f611067565b6312171d8360e31b8252600482fd5b50600a8101541515611062565b63fe89421760e01b8552600485fd5b600191506110fd816127a0565b14155f61103b565b630edd024760e11b8252600482fd5b50346109cc5760203660031901126109cc57600435338252600760205260ff604083205416156112fb5780825260036020526040822060088101908154906001600160401b0382164210156112ec5760070190815463ffffffff808260a01c169160c01c1610156112dd5760401c60ff1661118e816127a0565b6112ce57828452600660209081526040808620335f908152925290205460ff166112c057828452600660209081526040808620335f90815292529020805460ff19166001179055805461120d906111ed9060c01c63ffffffff166127eb565b825463ffffffff60c01b191660c09190911b63ffffffff60c01b16178255565b828452600560205260408420805490600160401b821015610fa557600182018082558210156112ac5785526020852001336bffffffffffffffffffffffff60a01b8254161790555463ffffffff808260a01c169160c01c1614611295575b5033907f8cba11d61cbdfdf0ada1aa34de5fb23e9fd7c9ec8554f273a1e5eefa7ba6748a8380a380f35b805460ff60401b1916600160401b1790555f61126b565b634e487b7160e01b86526032600452602486fd5b621d934160e11b8452600484fd5b63fe89421760e01b8452600484fd5b631fb94a6d60e31b8552600485fd5b63c034310360e01b8552600485fd5b632ef280e360e01b8252600482fd5b50346109cc5760403660031901126109cc57604061132661260c565b9160043581526006602052209060018060a01b03165f52602052602060ff60405f2054166040519015158152f35b50346109cc5760603660031901126109cc5760043561137161260c565b604435918215158303611542577f00000000000000000000000000000000000000000000000000000000000000006001600160a01b031633036116b95780845260036020526002604085209382865260046020526040862060018060a01b0385165f5260205260405f20905f146115855701600260ff1982541617905560078301611422611402825460e01c6127eb565b82546001600160e01b031660e09190911b6001600160e01b031916178255565b60ff60058501541680611578575b611546575b507f00000000000000000000000000000000000000000000000000000000000000006001600160a01b0316918490833b15610f205781809160646040518094819363824471a360e01b835260018060a01b031698896004840152886024840152600160448401525af18015610f155761152d575b50507f7b002445698eb657f0fbae44aa606b44c52031b120c29714c5047dbaad754e7e60206006850154604051908152a35b60088101600460ff825460401c166114f2816127a0565b146114fb578280f35b600761152092015463ffffffff8160a01c169060e01c145f1461152657600290612823565b5f808280f35b8290612823565b81611537916126bb565b61154257835f6114a9565b8380fd5b6115719083600686015491600a8701611560848254612816565b9055546001600160a01b03166129f1565b505f611435565b5060068401541515611430565b01805460ff191660031790557f00000000000000000000000000000000000000000000000000000000000000006001600160a01b0316918490833b15610f205781809160646040518094819363824471a360e01b835260018060a01b0316988960048401528860248401528160448401525af18015610f15576116a4575b505061161f60078401610dee63ffffffff825460c01c1661290d565b808452600660205260408420825f5260205260405f2060ff1981541690557f5ef47cdb9e7eebe5d165a6812a3b55b028050ff4c938da57cc05de575d3c3625608060405160208152602160208201527f4172626974726174696f6e3a2072756c656420616761696e737420776f726b656040820152603960f91b6060820152a36114db565b816116ae916126bb565b61154257835f611603565b6312331aab60e11b8452600484fd5b50346109cc5760203660031901126109cc5760043561ffff8116808203610fd75782546001600160a01b03163303611758576103e810611724576001805461ffff60a01b191660a09290921b61ffff60a01b1691909117905580f35b60405162461bcd60e51b815260206004820152600c60248201526b08ccaca40e8dede40d0d2ced60a31b6044820152606490fd5b6330cd747160e01b8352600483fd5b50346109cc5760203660031901126109cc576020906040906001600160a01b0361178f612622565b168152600883522054604051908152f35b50346109cc5760403660031901126109cc5760406117bc61260c565b9180608083516117cb816126a0565b828152606060208201528285820152606080820152015260043581526004602052209060018060a01b03165f5260205260405f2060405161180b816126a0565b81546001600160a01b03168152611824600183016126dc565b91602082019283526118b760ff6002830154166040840190611845816127a0565b81526004611855600385016126dc565b9360608601948552015492608085019384526118956040519687966020885260018060a01b0390511660208801525160a0604088015260c087019061277c565b91516118a0816127a0565b606086015251848203601f1901608086015261277c565b905160a08301520390f35b50346109cc5760203660031901126109cc576118dc612622565b81546001600160a01b03163303611917576001600160a01b0316801561099f576bffffffffffffffffffffffff60a01b600154161760015580f35b6330cd747160e01b8252600482fd5b50346109cc57806003193601126109cc576001546040516001600160a01b039091168152602090f35b50346109cc5760403660031901126109cc576004356024356001600160401b038111610fd7576119839036906004016127be565b82845260036020908152604080862085875260068352818720335f908152935291205492939260ff1615611cd957600801546001600160401b0316421015611cca57818452600460209081526040808620335f908152925290206002015460ff166119ed816127a0565b8015159081611cb5575b50611ca657604051611a08816126a0565b338152611a16368386612861565b602082019081526040820160018152602060405191611a3582846126bb565b888352606085019283524260808601908152878a52600483526040808b20335f90815290855220955186546001600160a01b0319166001600160a01b0391909116178655935180516001870191906001600160401b038111611c9257611a9f816105b58554612638565b848c601f8311600114611c305790611aca938361067e5750508160011b915f199060031b1c19161790565b90555b600285019051611adc816127a0565b611ae5816127a0565b60ff80198354169116179055600384019151908151916001600160401b038311611c1c57611b1d83611b178654612638565b86612897565b8982601f8511600114611b8b5750836004947fb2217a1ebc8d6435d328a4607aa9709269fe4cb393535a1675721d8431a54018999794610ef6999794611b76949261067e5750508160011b915f199060031b1c19161790565b90555b519101556040519182913396836128e6565b858c52808c2093929150601f198516908c905b828210611c04575050937fb2217a1ebc8d6435d328a4607aa9709269fe4cb393535a1675721d8431a54018989693610ef69896936001938360049810611bec575b505050811b019055611b79565b01515f1960f88460031b161c191690555f8080611bdf565b80600186978294978701518155019601940190611b9e565b634e487b7160e01b8a52604160045260248afd5b9192601f198416858452878420935b88828210611c7c575050908460019594939210611c64575b505050811b019055611acd565b01515f1960f88460031b161c191690555f8080611c57565b6001859682939686015181550195019301611c3f565b634e487b7160e01b8c52604160045260248cfd5b639fbfc58960e01b8452600484fd5b60039150611cc2816127a0565b14155f6119f7565b63c034310360e01b8452600484fd5b63c394a43360e01b8552600485fd5b50346109cc57806003193601126109cc57602061ffff60015460a01c16604051908152f35b50346109cc5760203660031901126109cc57806040916101e08351611d3181612670565b828152826020820152606085820152606080820152606060808201528260a08201528260c08201528260e08201528261010082015282610120820152826101408201528261016082015282610180820152826101a082015260606101c082015201526004358152600360205220600a60405191611dad83612670565b8054835260018101546001600160a01b03166020840152611dd0600282016126dc565b6040840152611de1600382016126dc565b6060840152611df2600482016126dc565b608084015260ff600582015416151560a0840152600681015460c0840152600781015460018060a01b03811660e085015263ffffffff8160a01c1661010085015263ffffffff8160c01c1661012085015260e01c61014084015260ff60088201546001600160401b038116610160860152818160401c16611e72816127a0565b61018086015260481c16611e85816127a0565b6101a0840152611e97600982016126dc565b6101c084015201546101e08201526040518091602082528051602083015260018060a01b0360208201511660408301526101e0611fce611f1a611f04611eee6040860151610200606089015261022088019061277c565b6060860151878203601f1901608089015261277c565b6080850151868203601f190160a088015261277c565b60a0840151151560c086015260c084015160e086015260018060a01b0360e08501511661010086015263ffffffff6101008501511661012086015263ffffffff6101208501511661014086015263ffffffff610140850151166101608601526001600160401b0361016085015116610180860152610180840151611f9d816127a0565b6101a08601526101a0840151611fb2816127a0565b6101c08601526101c0840151601f19868303018487015261277c565b9101516102008301520390f35b50346109cc5760203660031901126109cc57611ff5612622565b81546001600160a01b031633036119175760018060a01b03811690818352600860205261204060408420548092848652600860205285604081205560018060a01b03865416906129f1565b156120735760207fc0819c13be868895eb93e40eaceb96de976442fa1d404e5c55f14bb65a8c489a91604051908152a280f35b6312171d8360e31b8352600483fd5b50346109cc5760403660031901126109cc57604061209e61260c565b9160043581526004602052209060018060a01b03165f5260205260405f2060018060a01b038154166120d2600183016126dc565b9161212860ff60028301541660046120ec600385016126dc565b9301549261210c604051968796875260a0602088015260a087019061277c565b91612116816127a0565b6040860152848203606086015261277c565b9060808301520390f35b50346109cc5760403660031901126109cc5760043561214f61260c565b818352600360205260408320600101549091906001600160a01b031633036122c05780835260046020526040832060018060a01b0383165f52602052600260405f20018054600160ff82166121a3816127a0565b036122b15760ff19166004908117909155818452600360208181526040808720600801805460ff60401b191668040000000000000000179055848752918152818620600101549151637852d53960e01b81529283018490526001600160a01b0394851660248401819052918516604484015290938290606490829088907f0000000000000000000000000000000000000000000000000000000000000000165af180156122a657612277575b507fe2b89a6c00c8e3b916e77ef83b31bdf21abe2638ce360506cc80079c08f884488380a380f35b6020813d60201161229e575b81612290602093836126bb565b81010312611542575161224f565b3d9150612283565b6040513d86823e3d90fd5b632bf2e2af60e21b8552600485fd5b630edd024760e11b8352600483fd5b50346124db5760403660031901126124db576004356122ec61260c565b5f828152600360205260409020600101546001600160a01b0316330361254857815f52600360205260405f2091805f52600460205260405f2060018060a01b0383165f52602052600260405f20018054600160ff821661234b816127a0565b036125395760029060ff1916179055600783019161238f61236f845460e01c6127eb565b84546001600160e01b031660e09190911b6001600160e01b031916178455565b60ff6005850154168061252c575b156124ee57825460068501805490916123c1919084906001600160a01b03166129f1565b156124df5754600a85016123d6828254612816565b90556040519081526001600160a01b0382169083907f7b002445698eb657f0fbae44aa606b44c52031b120c29714c5047dbaad754e7e90602090a35b7f00000000000000000000000000000000000000000000000000000000000000006001600160a01b031691823b156124db5760405163824471a360e01b81526001600160a01b039092166004830152602482015260016044820152905f908290606490829084905af180156124d0576124bb575b505463ffffffff8160a01c169060e01c1461249f575080f35b600801805460ff60401b19166802000000000000000017905580f35b6124c89193505f906126bb565b5f915f612486565b6040513d5f823e3d90fd5b5f80fd5b6312171d8360e31b5f5260045ffd5b6040515f81526001600160a01b0382169083907f7b002445698eb657f0fbae44aa606b44c52031b120c29714c5047dbaad754e7e90602090a3612412565b506006840154151561239d565b632bf2e2af60e21b5f5260045ffd5b630edd024760e11b5f5260045ffd5b346124db5760203660031901126124db576004355f52600560205260405f20908154808252602082019081935f5260205f20905f5b8181106125ed57505050816125a29103826126bb565b604051918291602083019060208452518091526040830191905f5b8181106125cb575050500390f35b82516001600160a01b03168452859450602093840193909201916001016125bd565b82546001600160a01b031684526020909301926001928301920161258c565b602435906001600160a01b03821682036124db57565b600435906001600160a01b03821682036124db57565b90600182811c92168015612666575b602083101461265257565b634e487b7160e01b5f52602260045260245ffd5b91607f1691612647565b61020081019081106001600160401b0382111761268c57604052565b634e487b7160e01b5f52604160045260245ffd5b60a081019081106001600160401b0382111761268c57604052565b90601f801991011681019081106001600160401b0382111761268c57604052565b9060405191825f8254926126ef84612638565b808452936001811690811561275a5750600114612716575b50612714925003836126bb565b565b90505f9291925260205f20905f915b81831061273e575050906020612714928201015f612707565b6020919350806001915483858901015201910190918492612725565b90506020925061271494915060ff191682840152151560051b8201015f612707565b805180835260209291819084018484015e5f828201840152601f01601f1916010190565b600511156127aa57565b634e487b7160e01b5f52602160045260245ffd5b9181601f840112156124db578235916001600160401b0383116124db57602083818601950101116124db57565b63ffffffff1663ffffffff81146128025760010190565b634e487b7160e01b5f52601160045260245ffd5b9190820391821161280257565b9061282d816127a0565b60ff60401b82549160401b169060ff60401b1916179055565b6001600160401b03811161268c57601f01601f191660200190565b92919261286d82612846565b9161287b60405193846126bb565b8294818452818301116124db578281602093845f960137010152565b601f82116128a457505050565b5f5260205f20906020601f840160051c830193106128dc575b601f0160051c01905b8181106128d1575050565b5f81556001016128c6565b90915081906128bd565b90918060409360208452816020850152848401375f828201840152601f01601f1916010190565b63ffffffff168015612802575f190190565b3563ffffffff811681036124db5790565b356001600160401b03811681036124db5790565b356001600160a01b03811681036124db5790565b8181029291811591840414171561280257565b9190820180921161280257565b903590601e19813603018212156124db57018035906001600160401b0382116124db576020019181360383136124db57565b3d156129d4573d906129bb82612846565b916129c960405193846126bb565b82523d5f602084013e565b606090565b908160209103126124db575180151581036124db5790565b5f929183809360405190602082019363a9059cbb60e01b855260018060a01b03166024830152604482015260448152612a2b6064826126bb565b51925af1612a376129aa565b81612a40575090565b8051801592508215612a5157505090565b612a6492506020809183010191016129d9565b9056fea26469706673582212204f14ec91ea6c1776056744affd7b304d93884f9e10d9d46b1bd4f78321b77ace64736f6c634300081c0033",
  "linkReferences": {},
  "deployedLinkReferences": {},
  "immutableReferences": {
    "811": [
      {
        "length": 32,
        "start": 2533
      },
      {
        "length": 32,
        "start": 3667
      },
      {
        "length": 32,
        "start": 5176
      },
      {
        "length": 32,
        "start": 5523
      },
      {
        "length": 32,
        "start": 9236
      }
    ],
    "814": [
      {
        "length": 32,
        "start": 2695
      },
      {
        "length": 32,
        "start": 4992
      },
      {
        "length": 32,
        "start": 8738
      }
    ]
  },
  "inputSourceName": "project/contracts/TaskEscrow.sol",
  "buildInfoId": "solc-0_8_28-e51b37d68813de05e67c8ac19701f3f6a84ddaeb"
}