{
  "_format": "hh3-artifact-1",
  "contractName": "WorkerReputation",
  "sourceName": "contracts/WorkerReputation.sol",
  "abi": [
    {
      "inputs": [],
      "stateMutability": "nonpayable",
      "type": "constructor"
    },
    {
      "inputs": [],
      "name": "NonTransferable",
      "type": "error"
    },
    {
      "inputs": [],
      "name": "NotEscrow",
      "type": "error"
    },
    {
      "inputs": [],
      "name": "NotOwner",
      "type": "error"
    },
    {
      "inputs": [],
      "name": "ZeroAddress",
      "type": "error"
    },
    {
      "anonymous": false,
      "inputs": [
        {
          "indexed": true,
          "internalType": "address",
          "name": "escrow",
          "type": "address"
        }
      ],
      "name": "EscrowSet",
      "type": "event"
    },
    {
      "anonymous": false,
      "inputs": [
        {
          "indexed": true,
          "internalType": "address",
          "name": "worker",
          "type": "address"
        },
        {
          "indexed": false,
          "internalType": "uint256",
          "name": "tokenId",
          "type": "uint256"
        }
      ],
      "name": "NFTMinted",
      "type": "event"
    },
    {
      "anonymous": false,
      "inputs": [
        {
          "indexed": true,
          "internalType": "address",
          "name": "worker",
          "type": "address"
        },
        {
          "indexed": false,
          "internalType": "uint256",
          "name": "completed",
          "type": "uint256"
        },
        {
          "indexed": false,
          "internalType": "uint8",
          "name": "tier",
          "type": "uint8"
        }
      ],
      "name": "ReputationUpdated",
      "type": "event"
    },
    {
      "anonymous": false,
      "inputs": [
        {
          "indexed": true,
          "internalType": "address",
          "name": "worker",
          "type": "address"
        },
        {
          "indexed": false,
          "internalType": "uint8",
          "name": "newTier",
          "type": "uint8"
        }
      ],
      "name": "TierUpgraded",
      "type": "event"
    },
    {
      "inputs": [
        {
          "internalType": "address",
          "name": "worker",
          "type": "address"
        }
      ],
      "name": "approvalRate",
      "outputs": [
        {
          "internalType": "uint256",
          "name": "bps",
          "type": "uint256"
        }
      ],
      "stateMutability": "view",
      "type": "function"
    },
    {
      "inputs": [],
      "name": "escrow",
      "outputs": [
        {
          "internalType": "address",
          "name": "",
          "type": "address"
        }
      ],
      "stateMutability": "view",
      "type": "function"
    },
    {
      "inputs": [
        {
          "internalType": "address",
          "name": "worker",
          "type": "address"
        }
      ],
      "name": "getStats",
      "outputs": [
        {
          "components": [
            {
              "internalType": "uint256",
              "name": "tasksCompleted",
              "type": "uint256"
            },
            {
              "internalType": "uint256",
              "name": "tasksAttempted",
              "type": "uint256"
            },
            {
              "internalType": "uint256",
              "name": "totalEarned",
              "type": "uint256"
            },
            {
              "internalType": "uint8",
              "name": "tier",
              "type": "uint8"
            },
            {
              "internalType": "uint256",
              "name": "tokenId",
              "type": "uint256"
            }
          ],
          "internalType": "struct WorkerReputation.WorkerStats",
          "name": "",
          "type": "tuple"
        }
      ],
      "stateMutability": "view",
      "type": "function"
    },
    {
      "inputs": [
        {
          "internalType": "address",
          "name": "worker",
          "type": "address"
        }
      ],
      "name": "getTier",
      "outputs": [
        {
          "internalType": "uint8",
          "name": "",
          "type": "uint8"
        }
      ],
      "stateMutability": "view",
      "type": "function"
    },
    {
      "inputs": [],
      "name": "owner",
      "outputs": [
        {
          "internalType": "address",
          "name": "",
          "type": "address"
        }
      ],
      "stateMutability": "view",
      "type": "function"
    },
    {
      "inputs": [
        {
          "internalType": "uint256",
          "name": "tokenId",
          "type": "uint256"
        }
      ],
      "name": "ownerOf",
      "outputs": [
        {
          "internalType": "address",
          "name": "",
          "type": "address"
        }
      ],
      "stateMutability": "view",
      "type": "function"
    },
    {
      "inputs": [
        {
          "internalType": "address",
          "name": "worker",
          "type": "address"
        },
        {
          "internalType": "uint256",
          "name": "taskId",
          "type": "uint256"
        },
        {
          "internalType": "bool",
          "name": "approved",
          "type": "bool"
        }
      ],
      "name": "recordCompletion",
      "outputs": [],
      "stateMutability": "nonpayable",
      "type": "function"
    },
    {
      "inputs": [
        {
          "internalType": "address",
          "name": "_escrow",
          "type": "address"
        }
      ],
      "name": "setEscrow",
      "outputs": [],
      "stateMutability": "nonpayable",
      "type": "function"
    },
    {
      "inputs": [
        {
          "internalType": "address",
          "name": "",
          "type": "address"
        }
      ],
      "name": "stats",
      "outputs": [
        {
          "internalType": "uint256",
          "name": "tasksCompleted",
          "type": "uint256"
        },
        {
          "internalType": "uint256",
          "name": "tasksAttempted",
          "type": "uint256"
        },
        {
          "internalType": "uint256",
          "name": "totalEarned",
          "type": "uint256"
        },
        {
          "internalType": "uint8",
          "name": "tier",
          "type": "uint8"
        },
        {
          "internalType": "uint256",
          "name": "tokenId",
          "type": "uint256"
        }
      ],
      "stateMutability": "view",
      "type": "function"
    },
    {
      "inputs": [
        {
          "internalType": "uint256",
          "name": "",
          "type": "uint256"
        }
      ],
      "name": "tokenOwner",
      "outputs": [
        {
          "internalType": "address",
          "name": "",
          "type": "address"
        }
      ],
      "stateMutability": "view",
      "type": "function"
    },
    {
      "inputs": [
        {
          "internalType": "address",
          "name": "",
          "type": "address"
        },
        {
          "internalType": "address",
          "name": "",
          "type": "address"
        },
        {
          "internalType": "uint256",
          "name": "",
          "type": "uint256"
        }
      ],
      "name": "transferFrom",
      "outputs": [],
      "stateMutability": "pure",
      "type": "function"
    },
    {
      "inputs": [
        {
          "internalType": "address",
          "name": "",
          "type": "address"
        }
      ],
      "name": "workerToken",
      "outputs": [
        {
          "internalType": "uint256",
          "name": "",
          "type": "uint256"
        }
      ],
      "stateMutability": "view",
      "type": "function"
    }
  ],
  "bytecode": "0x608080604052346026575f80546001600160a01b03191633179055610736908161002b8239f35b5f80fdfe6080806040526004361015610012575f80fd5b5f3560e01c9081631caaa4871461053e5750806323b872dd1461050c5780636352211e146104da5780637c1c896c146104af578063824471a3146103135780638bcdcbf3146102ac5780638da5cb5b14610285578063b00868861461024d578063b45aae521461020f578063c10c354614610180578063c23f85d6146100cc5763e2fdcc17146100a0575f80fd5b346100c8575f3660031901126100c8576001546040516001600160a01b039091168152602090f35b5f80fd5b346100c85760203660031901126100c8576100e561056f565b5f60806100f0610626565b828152826020820152826040820152826060820152015260018060a01b03165f52600360205260a060405f20610124610626565b60ff82549283835260018101546020840190815260028201549060408501918252608060048560038601541694606088019586520154950194855260405195865251602086015251604085015251166060830152516080820152f35b346100c85760203660031901126100c85761019961056f565b5f546001600160a01b03163303610200576001600160a01b031680156101f157600180546001600160a01b031916821790557fa585aec3a6cb0e1a084ed18c7638024e40cc3e3ea815166e2cb6fc17d7f1392b5f80a2005b63d92e233d60e01b5f5260045ffd5b6330cd747160e01b5f5260045ffd5b346100c85760203660031901126100c8576001600160a01b0361023061056f565b165f526003602052602060ff600360405f20015416604051908152f35b346100c85760203660031901126100c8576001600160a01b0361026e61056f565b165f526005602052602060405f2054604051908152f35b346100c8575f3660031901126100c8575f546040516001600160a01b039091168152602090f35b346100c85760203660031901126100c8576001600160a01b036102cd61056f565b165f52600360205260a060405f208054906001810154906002810154600460ff600384015416920154926040519485526020850152604084015260608301526080820152f35b346100c85760603660031901126100c85761032c61056f565b6044359081151582036100c8576001546001600160a01b031633036104a05760018060a01b031690815f52600360205260ff60405f2060018101926103718454610618565b845561048f575b836004820180541580610483575b610410575b507fe49cf8896948048b69e1531d3f28ce172d4464f874cedc6c5e3b002d1cc2f20b60406003840195856103c48854965492548361065a565b169687871987161790558151908152866020820152a21681116103e357005b60207f51de07a4aba9cb8a2ff4c3c8735d01b775003c93dd3ddf5f7a2513c87dde55df91604051908152a2005b60207f4cc0a9c4a99ddc700de1af2c9f916a7cbfdb71f14801ccff94061ad1ef8a80409161043f600254610618565b80918160025555805f526004825260405f20846bffffffffffffffffffffffff60a01b825416179055835f52600582528060405f2055604051908152a2838561038b565b50600183541015610386565b6104998154610618565b8155610378565b637e223fb160e11b5f5260045ffd5b346100c85760203660031901126100c85760206104d26104cd61056f565b6105b9565b604051908152f35b346100c85760203660031901126100c8576004355f526004602052602060018060a01b0360405f205416604051908152f35b346100c85760603660031901126100c85761052561056f565b5061052e610585565b50639cbe235760e01b5f5260045ffd5b346100c85760203660031901126100c857600480355f908152602091825260409020546001600160a01b0316825290f35b600435906001600160a01b03821682036100c857565b602435906001600160a01b03821682036100c857565b81156105a5570490565b634e487b7160e01b5f52601260045260245ffd5b6001600160a01b03165f908152600360205260409020600181015490811561061257549061271082029180830461271014901517156105fe576105fb9161059b565b90565b634e487b7160e01b5f52601160045260245ffd5b50505f90565b5f1981146105fe5760010190565b6040519060a0820182811067ffffffffffffffff82111761064657604052565b634e487b7160e01b5f52604160045260245ffd5b908115908180156106f8575b6106f1576127108302918383046127101417156105fe576106869161059b565b906032811015806106e5575b6106de576014811015806106d2575b6106cb576005111590816106be575b506106b9575f90565b600190565b611770915010155f6106b0565b5050600290565b50611b588210156106a1565b5050600390565b50611f40821015610692565b5050505f90565b50801561066656fea264697066735822122005362d05067ad3b39f63aa468658bce5c3cbf499263126cf637ca84aeda640bb64736f6c634300081c0033",
  "linkReferences": {},
  "deployedLinkReferences": {},
  "immutableReferences": {},
  "inputSourceName": "project/contracts/WorkerReputation.sol",
  "buildInfoId": "solc-0_8_28-09d277f51759ae24426792bd225a190b1e710a5b"
}